{
  "contractName": "Crud",
  "abi": [
    {
      "inputs": [
        {
          "internalType": "uint256",
          "name": "",
          "type": "uint256"
        }
      ],
      "name": "users",
      "outputs": [
        {
          "internalType": "uint256",
          "name": "id",
          "type": "uint256"
        },
        {
          "internalType": "string",
          "name": "name",
          "type": "string"
        }
      ],
      "stateMutability": "view",
      "type": "function"
    },
    {
      "inputs": [
        {
          "internalType": "uint256",
          "name": "_id",
          "type": "uint256"
        }
      ],
      "name": "readUser",
      "outputs": [
        {
          "internalType": "uint256",
          "name": "",
          "type": "uint256"
        },
        {
          "internalType": "string",
          "name": "",
          "type": "string"
        }
      ],
      "stateMutability": "view",
      "type": "function"
    },
    {
      "inputs": [
        {
          "internalType": "string",
          "name": "_name",
          "type": "string"
        }
      ],
      "name": "createUser",
      "outputs": [],
      "stateMutability": "nonpayable",
      "type": "function"
    },
    {
      "inputs": [
        {
          "internalType": "uint256",
          "name": "_id",
          "type": "uint256"
        }
      ],
      "name": "deleteUser",
      "outputs": [],
      "stateMutability": "nonpayable",
      "type": "function"
    },
    {
      "inputs": [
        {
          "internalType": "uint256",
          "name": "_id",
          "type": "uint256"
        },
        {
          "internalType": "string",
          "name": "_newName",
          "type": "string"
        }
      ],
      "name": "updateUser",
      "outputs": [],
      "stateMutability": "nonpayable",
      "type": "function"
    }
  ],
  "bytecode": "0x60806040526001805534801561001457600080fd5b506107e6806100246000396000f3fe608060405234801561001057600080fd5b5060043610610073577c010000000000000000000000000000000000000000000000000000000060003504630d70e5d08114610078578063365b98b2146100a257806338f14845146100b5578063507ffba5146100ca578063d85340e7146100dd575b600080fd5b61008b61008636600461063f565b6100f0565b6040516100999291906106d3565b60405180910390f35b61008b6100b036600461063f565b610204565b6100c86100c336600461063f565b6102bc565b005b6100c86100d8366004610604565b61030d565b6100c86100eb366004610657565b6103ab565b6000606060006100ff84610407565b815481106101205760e060020a634e487b7102600052603260045260246000fd5b906000526020600020906002020160000154600061013d85610407565b8154811061015e5760e060020a634e487b7102600052603260045260246000fd5b906000526020600020906002020160010180805461017b90610746565b80601f01602080910402602001604051908101604052809291908181526020018280546101a790610746565b80156101f45780601f106101c9576101008083540402835291602001916101f4565b820191906000526020600020905b8154815290600101906020018083116101d757829003601f168201915b5050505050905091509150915091565b6000818154811061021457600080fd5b6000918252602090912060029091020180546001820180549193509061023990610746565b80601f016020809104026020016040519081016040528092919081815260200182805461026590610746565b80156102b25780601f10610287576101008083540402835291602001916102b2565b820191906000526020600020905b81548152906001019060200180831161029557829003601f168201915b5050505050905082565b60006102c782610407565b815481106102e85760e060020a634e487b7102600052603260045260246000fd5b6000918252602082206002909102018181559061030860018301826104ab565b505050565b6040805180820190915260018054825260208083018481526000805493840181558052835160029093027f290decd9548b62a8d60345a988386fc84ba6bc95484008f6362f93160ef3e563810193845590518051610394937f290decd9548b62a8d60345a988386fc84ba6bc95484008f6362f93160ef3e5649093019291909101906104ea565b5050600180546103a5925090610498565b60015550565b60006103b683610407565b905081600082815481106103dd5760e060020a634e487b7102600052603260045260246000fd5b906000526020600020906002020160010190805190602001906104019291906104ea565b50505050565b600080548190156104915782600082815481106104375760e060020a634e487b7102600052603260045260246000fd5b9060005260206000209060020201600001541415610456579050610493565b6040517f08c379a00000000000000000000000000000000000000000000000000000000081526004016104889061069c565b60405180910390fd5b505b919050565b60006104a4828461072e565b9392505050565b5080546104b790610746565b6000825580601f106104c957506104e7565b601f0160209004906000526020600020908101906104e7919061056e565b50565b8280546104f690610746565b90600052602060002090601f016020900481019282610518576000855561055e565b82601f1061053157805160ff191683800117855561055e565b8280016001018555821561055e579182015b8281111561055e578251825591602001919060010190610543565b5061056a92915061056e565b5090565b5b8082111561056a576000815560010161056f565b600082601f830112610593578081fd5b813567ffffffffffffffff808211156105ae576105ae610797565b604051601f8301601f1916810160200182811182821017156105d2576105d2610797565b6040528281528483016020018610156105e9578384fd5b82602086016020830137918201602001929092529392505050565b600060208284031215610615578081fd5b813567ffffffffffffffff81111561062b578182fd5b61063784828501610583565b949350505050565b600060208284031215610650578081fd5b5035919050565b60008060408385031215610669578081fd5b82359150602083013567ffffffffffffffff811115610686578182fd5b61069285828601610583565b9150509250929050565b60208082526012908201527f5573657220646f65736e27742065786973740000000000000000000000000000604082015260600190565b600083825260206040818401528351806040850152825b81811015610706578581018301518582016060015282016106ea565b818111156107175783606083870101525b50601f01601f191692909201606001949350505050565b600082198211156107415761074161077e565b500190565b60028104600182168061075a57607f821691505b602082108114156104915760e060020a634e487b7102600052602260045260246000fd5b60e060020a634e487b7102600052601160045260246000fd5b60e060020a634e487b7102600052604160045260246000fdfea2646970667358221220a528f9f5c14716caefa7e8a25e5ded6e217b46a17beebfa1f824c3f152f9d05a64736f6c63430008000033",
  "immutableReferences": {},
  "source": "//SPDX-License-Identifier: UNLICENSED\"\npragma solidity ^0.8.0;\n\nimport \"@openzeppelin/contracts/utils/math/SafeMath.sol\";\n\ncontract Crud {\n    \n    struct User{\n        uint256 id;\n        string name;\n    }\n    User[] public users;\n    \n    using SafeMath for uint256;\n\n    uint256 nextId = 1;\n\n    function findUser(uint256 _id) view internal returns(uint){\n        for(uint i =0; i< users.length; i++){\n            if(users[i].id == _id){\n                return i;\n            }\n            revert(\"User doesn't exist\");\n        }\n    }\n    \n    function readUser(uint256 _id) public view returns(uint256, string memory){\n        return(users[findUser(_id)].id, users[findUser(_id)].name);\n    }\n\n    function createUser(string memory _name) public{\n        users.push(User(nextId, _name));\n        nextId = nextId.add(1);\n    }\n\n    function deleteUser(uint256 _id) public{\n        delete users[findUser(_id)];\n    }\n\n    function updateUser(uint256 _id, string memory _newName) public{\n        uint256 id = findUser(_id);\n        users[id].name = _newName;\n    }\n\n}",
  "sourcePath": "/home/conbon/Documents/CRUD/contracts/Crud.sol",
  "compiler": {
    "name": "solc",
    "version": "0.8.0+commit.c7dfd78e.Emscripten.clang"
  },
  "schemaVersion": "3.4.1",
  "updatedAt": "2021-05-26T17:12:52.439Z",
  "devdoc": {
    "kind": "dev",
    "methods": {},
    "version": 1
  },
  "userdoc": {
    "kind": "user",
    "methods": {},
    "version": 1
  }
}